{
  "contractName": "MultiNumberBettingV1",
  "abi": [
    {
      "inputs": [
        {
          "name": "num0",
          "type": "uint8"
        },
        {
          "name": "num1",
          "type": "uint8"
        },
        {
          "name": "num2",
          "type": "uint8"
        }
      ],
      "payable": false,
      "stateMutability": "nonpayable",
      "type": "constructor"
    },
    {
      "constant": false,
      "inputs": [
        {
          "name": "num",
          "type": "uint8"
        },
        {
          "name": "name",
          "type": "string"
        }
      ],
      "name": "guess",
      "outputs": [
        {
          "name": "",
          "type": "bool"
        }
      ],
      "payable": false,
      "stateMutability": "nonpayable",
      "type": "function"
    },
    {
      "constant": false,
      "inputs": [],
      "name": "totalGuesses",
      "outputs": [
        {
          "name": "",
          "type": "uint256"
        }
      ],
      "payable": false,
      "stateMutability": "nonpayable",
      "type": "function"
    },
    {
      "constant": false,
      "inputs": [],
      "name": "getLastWinner",
      "outputs": [
        {
          "name": "",
          "type": "string"
        }
      ],
      "payable": false,
      "stateMutability": "nonpayable",
      "type": "function"
    },
    {
      "constant": false,
      "inputs": [],
      "name": "getLastWinnerAt",
      "outputs": [
        {
          "name": "",
          "type": "uint256"
        }
      ],
      "payable": false,
      "stateMutability": "nonpayable",
      "type": "function"
    },
    {
      "constant": false,
      "inputs": [],
      "name": "daysSinceLastWinning",
      "outputs": [
        {
          "name": "",
          "type": "uint256"
        }
      ],
      "payable": false,
      "stateMutability": "nonpayable",
      "type": "function"
    },
    {
      "constant": false,
      "inputs": [],
      "name": "hoursSinceLastWinning",
      "outputs": [
        {
          "name": "",
          "type": "uint256"
        }
      ],
      "payable": false,
      "stateMutability": "nonpayable",
      "type": "function"
    },
    {
      "constant": false,
      "inputs": [],
      "name": "minutesSinceLastWinning",
      "outputs": [
        {
          "name": "",
          "type": "uint256"
        }
      ],
      "payable": false,
      "stateMutability": "nonpayable",
      "type": "function"
    }
  ],
  "bytecode": "0x60606040526040805190810160405280600381526020017f2a2a2a00000000000000000000000000000000000000000000000000000000008152506004908051906020019061004f929190610129565b506000600555341561006057600080fd5b60405160608061097983398101604052808051906020019091908051906020019091908051906020019091905050826003600060038110151561009f57fe5b602091828204019190066101000a81548160ff021916908360ff16021790555081600360016003811015156100d057fe5b602091828204019190066101000a81548160ff021916908360ff160217905550806003600260038110151561010157fe5b602091828204019190066101000a81548160ff021916908360ff1602179055505050506101ce565b828054600181600116156101000203166002900490600052602060002090601f016020900481019282601f1061016a57805160ff1916838001178555610198565b82800160010185558215610198579182015b8281111561019757825182559160200191906001019061017c565b5b5090506101a591906101a9565b5090565b6101cb91905b808211156101c75760008160009055506001016101af565b5090565b90565b61079c806101dd6000396000f300606060405260043610610083576000357c0100000000000000000000000000000000000000000000000000000000900463ffffffff16806315153cdc14610088578063383cf3f2146100b157806348992bfa146100da5780636d48a043146101035780638ef282491461012c57806395583f7114610155578063f88649a1146101d6575b600080fd5b341561009357600080fd5b61009b610264565b6040518082815260200191505060405180910390f35b34156100bc57600080fd5b6100c4610297565b6040518082815260200191505060405180910390f35b34156100e557600080fd5b6100ed6102a1565b6040518082815260200191505060405180910390f35b341561010e57600080fd5b6101166102ad565b6040518082815260200191505060405180910390f35b341561013757600080fd5b61013f6102ec565b6040518082815260200191505060405180910390f35b341561016057600080fd5b6101bc600480803560ff1690602001909190803590602001908201803590602001908080601f016020809104026020016040519081016040528093929190818152602001838380828437820191505050505050919050506102fa565b604051808215151515815260200191505060405180910390f35b34156101e157600080fd5b6101e96104af565b6040518080602001828103825283818151815260200191508051906020019080838360005b8381101561022957808201518184015260208101905061020e565b50505050905090810190601f1680156102565780820380516001836020036101000a031916815260200191505b509250505060405180910390f35b600080600554111561029357603c80600554420381151561028157fe5b0481151561028b57fe5b049050610294565b5b90565b6000600554905090565b60006005544203905090565b60008060055411156102e8576018603c8060055442038115156102cc57fe5b048115156102d657fe5b048115156102e057fe5b0490506102e9565b5b90565b600060015460005401905090565b600080610305610647565b600a8560ff1610151561031457fe5b600091505b60038260ff161015610491578460ff1660038360ff1660038110151561033b57fe5b602091828204019190069054906101000a900460ff1660ff161415610484576001600081548092919060010191905055506080604051908101604052803373ffffffffffffffffffffffffffffffffffffffff1681526020018581526020018660ff16815260200142815250905080600660003373ffffffffffffffffffffffffffffffffffffffff1673ffffffffffffffffffffffffffffffffffffffff16815260200190815260200160002060008201518160000160006101000a81548173ffffffffffffffffffffffffffffffffffffffff021916908373ffffffffffffffffffffffffffffffffffffffff160217905550602082015181600101908051906020019061044c92919061068f565b5060408201518160020160006101000a81548160ff021916908360ff16021790555060608201518160030155905050600192506104a7565b8180600101925050610319565b6000808154809291906001019190505550600092505b505092915050565b6104b761070f565b6104bf610723565b6104c7610723565b600060036040518059106104d85750595b9080825280601f01601f1916602001820160405250925060048054600181600116156101000203166002900480601f0160208091040260200160405190810160405280929190818152602001828054600181600116156101000203166002900480156105855780601f1061055a57610100808354040283529160200191610585565b820191906000526020600020905b81548152906001019060200180831161056857829003601f168201915b50505050509150600090505b600381101561063e5781818151811015156105a857fe5b9060200101517f010000000000000000000000000000000000000000000000000000000000000090047f010000000000000000000000000000000000000000000000000000000000000002838281518110151561060157fe5b9060200101907effffffffffffffffffffffffffffffffffffffffffffffffffffffffffffff1916908160001a9053508080600101915050610591565b82935050505090565b608060405190810160405280600073ffffffffffffffffffffffffffffffffffffffff168152602001610678610737565b8152602001600060ff168152602001600081525090565b828054600181600116156101000203166002900490600052602060002090601f016020900481019282601f106106d057805160ff19168380011785556106fe565b828001600101855582156106fe579182015b828111156106fd5782518255916020019190600101906106e2565b5b50905061070b919061074b565b5090565b602060405190810160405280600081525090565b602060405190810160405280600081525090565b602060405190810160405280600081525090565b61076d91905b80821115610769576000816000905550600101610751565b5090565b905600a165627a7a723058206b928b6d3c24403a3d9bb5323699085aa0a4a0db1045c0ad79caea4d2107c1440029",
  "source": "pragma solidity ^0.4.17;\n\n/**\n * Exercise: V1\n * Section: 7\n * Part of an online course - for more info checkout link below\n * http://acloudfan.com/learn-blockchain\n */\n\ncontract MultiNumberBettingV1 {\n\n  //TODO explicit visibility on state vairables\n  //TODO delete state vars in struct\n  uint  loserCount;\n  uint  winnerCount;\n  address winner;\n\n  uint8[3]  numArray;\n\n  string lastWinnerName = \"***\";\n\n  uint lastWinnerAt = 0; //probably automatically 0?\n\n  struct Winner {\n    address winnerAddress;\n    string name;\n    uint8 guess;\n    uint guessedAt;\n  }\n\n  mapping(address => Winner) winningAddresses;\n\n  // Ex-1 Part-1\n  function MultiNumberBettingV1(uint8 num0, uint8 num1, uint8 num2) {\n    // constructor\n    numArray[0] = num0;\n    numArray[1] = num1;\n    numArray[2] = num2;\n  }\n\n  // Ex-1 Part-3\n  function guess(uint8 num, string name) returns (bool){\n    assert(num < 10);\n\n    for(uint8 i = 0 ; i < numArray.length ; i++){\n      if(numArray[i] == num) {\n        // Increase the winner count\n        winnerCount++;\n        Winner memory win = Winner(msg.sender, name, num, now);\n        //lastWinnerName = name;\n        //lastWinnerAt = now;\n        //winner = msg.sender;\n        winningAddresses[msg.sender] = win;\n        return true;\n      }\n    }\n    loserCount++;\n    return false;\n  }\n\n  // Ex-2\n  function totalGuesses() returns (uint){\n    return (loserCount+winnerCount);\n  }\n\n  function getLastWinner() returns (string){\n      //TODO change to return the last/first? 3 chars\n    bytes memory result = new bytes(3);\n    bytes memory winnerBytes = bytes(lastWinnerName);\n\n    for (uint i = 0; i < 3; i++) {\n      result[i] = winnerBytes[i];\n    }\n\n    return string(result);\n\n  }\n\n  //TODO delete\n  function getLastWinnerAt() returns (uint){\n    return lastWinnerAt;\n  }\n\n  function daysSinceLastWinning() returns (uint){\n      if (lastWinnerAt > 0) {\n        return (now - lastWinnerAt) / 60 / 60 / 24;\n        //dont really care if i got this right\n      }\n  }\n\n  function hoursSinceLastWinning() returns (uint){\n    if (lastWinnerAt > 0) {\n      return (now - lastWinnerAt) / 60 / 60;\n    }\n  }\n\n  function minutesSinceLastWinning() returns (uint){\n    //if (lastWinnerAt > 0) {\n      //return ((now - lastWinnerAt) / 60);\n    return  now - lastWinnerAt;\n    //}\n  }\n\n  // Ex-3\n  /**\n   * make a change to the 2_deploy_contracts.js\n   *   provide the 3 numbers to the constructor\n   * > testrpc\n   * > truffle migrate\n   * > trufle  networks\n   **/\n}\n",
  "sourcePath": "/home/something/Dev/Eth/PlayGround/MultiNumberBetting/contracts/MultiNumberBettingV1.sol",
  "compiler": {
    "name": "solc",
    "version": "0.4.21+commit.dfe3193c.Emscripten.clang"
  },
  "schemaVersion": "2.0.0",
  "updatedAt": "2018-05-03T11:18:23.420Z"
}