{
  "contractName": "MultiNumberBettingV1",
  "abi": [
    {
      "inputs": [
        {
          "name": "num0",
          "type": "uint8"
        },
        {
          "name": "num1",
          "type": "uint8"
        },
        {
          "name": "num2",
          "type": "uint8"
        }
      ],
      "payable": false,
      "stateMutability": "nonpayable",
      "type": "constructor"
    },
    {
      "constant": false,
      "inputs": [
        {
          "name": "num",
          "type": "uint8"
        },
        {
          "name": "name",
          "type": "string"
        }
      ],
      "name": "guess",
      "outputs": [
        {
          "name": "",
          "type": "bool"
        }
      ],
      "payable": false,
      "stateMutability": "nonpayable",
      "type": "function"
    },
    {
      "constant": false,
      "inputs": [],
      "name": "totalGuesses",
      "outputs": [
        {
          "name": "",
          "type": "uint256"
        }
      ],
      "payable": false,
      "stateMutability": "nonpayable",
      "type": "function"
    },
    {
      "constant": false,
      "inputs": [],
      "name": "getLastWinner",
      "outputs": [
        {
          "name": "",
          "type": "string"
        }
      ],
      "payable": false,
      "stateMutability": "nonpayable",
      "type": "function"
    }
  ],
  "bytecode": "0x60606040526040805190810160405280600381526020017f2a2a2a00000000000000000000000000000000000000000000000000000000008152506003908051906020019061004f929190610123565b50341561005b57600080fd5b6040516060806106af83398101604052808051906020019091908051906020019091908051906020019091905050826002600060038110151561009a57fe5b602091828204019190066101000a81548160ff021916908360ff16021790555081600260016003811015156100cb57fe5b602091828204019190066101000a81548160ff021916908360ff160217905550806002806003811015156100fb57fe5b602091828204019190066101000a81548160ff021916908360ff1602179055505050506101c8565b828054600181600116156101000203166002900490600052602060002090601f016020900481019282601f1061016457805160ff1916838001178555610192565b82800160010185558215610192579182015b82811115610191578251825591602001919060010190610176565b5b50905061019f91906101a3565b5090565b6101c591905b808211156101c15760008160009055506001016101a9565b5090565b90565b6104d8806101d76000396000f300606060405260043610610057576000357c0100000000000000000000000000000000000000000000000000000000900463ffffffff1680638ef282491461005c57806395583f7114610085578063f88649a114610106575b600080fd5b341561006757600080fd5b61006f610194565b6040518082815260200191505060405180910390f35b341561009057600080fd5b6100ec600480803560ff1690602001909190803590602001908201803590602001908080601f016020809104026020016040519081016040528093929190818152602001838380828437820191505050505050919050506101a2565b604051808215151515815260200191505060405180910390f35b341561011157600080fd5b610119610247565b6040518080602001828103825283818151815260200191508051906020019080838360005b8381101561015957808201518184015260208101905061013e565b50505050905090810190601f1680156101865780820380516001836020036101000a031916815260200191505b509250505060405180910390f35b600060015460005401905090565b600080600090505b60038160ff16101561022a578360ff1660028260ff166003811015156101cc57fe5b602091828204019190069054906101000a900460ff1660ff16141561021d5760016000815480929190600101919050555082600390805190602001906102139291906103df565b5060019150610240565b80806001019150506101aa565b6000808154809291906001019190505550600091505b5092915050565b61024f61045f565b610257610473565b61025f610473565b600060036040518059106102705750595b9080825280601f01601f1916602001820160405250925060038054600181600116156101000203166002900480601f01602080910402602001604051908101604052809291908181526020018280546001816001161561010002031660029004801561031d5780601f106102f25761010080835404028352916020019161031d565b820191906000526020600020905b81548152906001019060200180831161030057829003601f168201915b50505050509150600090505b60038110156103d657818181518110151561034057fe5b9060200101517f010000000000000000000000000000000000000000000000000000000000000090047f010000000000000000000000000000000000000000000000000000000000000002838281518110151561039957fe5b9060200101907effffffffffffffffffffffffffffffffffffffffffffffffffffffffffffff1916908160001a9053508080600101915050610329565b82935050505090565b828054600181600116156101000203166002900490600052602060002090601f016020900481019282601f1061042057805160ff191683800117855561044e565b8280016001018555821561044e579182015b8281111561044d578251825591602001919060010190610432565b5b50905061045b9190610487565b5090565b602060405190810160405280600081525090565b602060405190810160405280600081525090565b6104a991905b808211156104a557600081600090555060010161048d565b5090565b905600a165627a7a723058204cb7c697c7f48a7be2cb40eb5cab1c97ca67484409a7911c19e1df274eb3f3ae0029",
  "source": "pragma solidity ^0.4.17;\n\n/**\n * Exercise: V1\n * Section: 7\n * Part of an online course - for more info checkout link below\n * http://acloudfan.com/learn-blockchain\n */\n\ncontract MultiNumberBettingV1 {\n\n  // Ex-1 Part-2\n  uint  loserCount;\n  uint  winnerCount;\n\n  uint8[3]  numArray;\n\n  string lastWinnerName = \"***\";\n\n  // Ex-1 Part-1\n  function MultiNumberBettingV1(uint8 num0, uint8 num1, uint8 num2) {\n    // constructor\n    numArray[0] = num0;\n    numArray[1] = num1;\n    numArray[2] = num2;\n  }\n\n  // Ex-1 Part-3\n  function guess(uint8 num, string name) returns (bool){\n    for(uint8 i = 0 ; i < numArray.length ; i++){\n      if(numArray[i] == num) {\n        // Increase the winner count\n        winnerCount++;\n        lastWinnerName = name;\n        return true;\n      }\n    }\n    loserCount++;\n    return false;\n  }\n\n  // Ex-2\n  function totalGuesses() returns (uint){\n    return (loserCount+winnerCount);\n  }\n\n  function getLastWinner() returns (string){\n      //TODO change to return the last/first? 3 chars\n    bytes memory result = new bytes(3);\n    bytes memory winnerBytes = bytes(lastWinnerName);\n\n    for (uint i = 0; i < 3; i++) {\n      result[i] = winnerBytes[i];\n    }\n\n    return string(result);\n\n  }\n  // Ex-3\n  /**\n   * make a change to the 2_deploy_contracts.js\n   *   provide the 3 numbers to the constructor\n   * > testrpc\n   * > truffle migrate\n   * > trufle  networks\n   **/\n}\n",
  "sourcePath": "/home/something/Dev/Eth/PlayGround/MultiNumberBetting/contracts/MultiNumberBettingV1.sol",
  "compiler": {
    "name": "solc",
    "version": "0.4.21+commit.dfe3193c.Emscripten.clang"
  },
  "schemaVersion": "2.0.0",
  "updatedAt": "2018-04-26T01:24:08.827Z"
}