{
  "contractName": "MultiNumberBettingV1",
  "abi": [
    {
      "inputs": [
        {
          "name": "num0",
          "type": "uint8"
        },
        {
          "name": "num1",
          "type": "uint8"
        },
        {
          "name": "num2",
          "type": "uint8"
        }
      ],
      "payable": false,
      "stateMutability": "nonpayable",
      "type": "constructor"
    },
    {
      "constant": false,
      "inputs": [
        {
          "name": "num",
          "type": "uint8"
        },
        {
          "name": "name",
          "type": "string"
        }
      ],
      "name": "guess",
      "outputs": [
        {
          "name": "",
          "type": "bool"
        }
      ],
      "payable": false,
      "stateMutability": "nonpayable",
      "type": "function"
    },
    {
      "constant": false,
      "inputs": [],
      "name": "totalGuesses",
      "outputs": [
        {
          "name": "",
          "type": "uint256"
        }
      ],
      "payable": false,
      "stateMutability": "nonpayable",
      "type": "function"
    },
    {
      "constant": false,
      "inputs": [],
      "name": "getLastWinner",
      "outputs": [
        {
          "name": "",
          "type": "string"
        }
      ],
      "payable": false,
      "stateMutability": "nonpayable",
      "type": "function"
    },
    {
      "constant": false,
      "inputs": [],
      "name": "getLastWinnerAt",
      "outputs": [
        {
          "name": "",
          "type": "uint256"
        }
      ],
      "payable": false,
      "stateMutability": "nonpayable",
      "type": "function"
    }
  ],
  "bytecode": "0x60606040526040805190810160405280600381526020017f2a2a2a00000000000000000000000000000000000000000000000000000000008152506003908051906020019061004f929190610128565b506000600455341561006057600080fd5b6040516060806106f983398101604052808051906020019091908051906020019091908051906020019091905050826002600060038110151561009f57fe5b602091828204019190066101000a81548160ff021916908360ff16021790555081600260016003811015156100d057fe5b602091828204019190066101000a81548160ff021916908360ff1602179055508060028060038110151561010057fe5b602091828204019190066101000a81548160ff021916908360ff1602179055505050506101cd565b828054600181600116156101000203166002900490600052602060002090601f016020900481019282601f1061016957805160ff1916838001178555610197565b82800160010185558215610197579182015b8281111561019657825182559160200191906001019061017b565b5b5090506101a491906101a8565b5090565b6101ca91905b808211156101c65760008160009055506001016101ae565b5090565b90565b61051d806101dc6000396000f300606060405260043610610062576000357c0100000000000000000000000000000000000000000000000000000000900463ffffffff168063383cf3f2146100675780638ef282491461009057806395583f71146100b9578063f88649a11461013a575b600080fd5b341561007257600080fd5b61007a6101c8565b6040518082815260200191505060405180910390f35b341561009b57600080fd5b6100a36101d2565b6040518082815260200191505060405180910390f35b34156100c457600080fd5b610120600480803560ff1690602001909190803590602001908201803590602001908080601f016020809104026020016040519081016040528093929190818152602001838380828437820191505050505050919050506101e0565b604051808215151515815260200191505060405180910390f35b341561014557600080fd5b61014d61028c565b6040518080602001828103825283818151815260200191508051906020019080838360005b8381101561018d578082015181840152602081019050610172565b50505050905090810190601f1680156101ba5780820380516001836020036101000a031916815260200191505b509250505060405180910390f35b6000600454905090565b600060015460005401905090565b600080600090505b60038160ff16101561026f578360ff1660028260ff1660038110151561020a57fe5b602091828204019190069054906101000a900460ff1660ff161415610262576001600081548092919060010191905055508260039080519060200190610251929190610424565b504260048190555060019150610285565b80806001019150506101e8565b6000808154809291906001019190505550600091505b5092915050565b6102946104a4565b61029c6104b8565b6102a46104b8565b600060036040518059106102b55750595b9080825280601f01601f1916602001820160405250925060038054600181600116156101000203166002900480601f0160208091040260200160405190810160405280929190818152602001828054600181600116156101000203166002900480156103625780601f1061033757610100808354040283529160200191610362565b820191906000526020600020905b81548152906001019060200180831161034557829003601f168201915b50505050509150600090505b600381101561041b57818181518110151561038557fe5b9060200101517f010000000000000000000000000000000000000000000000000000000000000090047f01000000000000000000000000000000000000000000000000000000000000000283828151811015156103de57fe5b9060200101907effffffffffffffffffffffffffffffffffffffffffffffffffffffffffffff1916908160001a905350808060010191505061036e565b82935050505090565b828054600181600116156101000203166002900490600052602060002090601f016020900481019282601f1061046557805160ff1916838001178555610493565b82800160010185558215610493579182015b82811115610492578251825591602001919060010190610477565b5b5090506104a091906104cc565b5090565b602060405190810160405280600081525090565b602060405190810160405280600081525090565b6104ee91905b808211156104ea5760008160009055506001016104d2565b5090565b905600a165627a7a7230582017696b5607cbb760fead74fc57591e745af3254916f5e4222c5ef6a3a77a4c210029",
  "source": "pragma solidity ^0.4.17;\n\n/**\n * Exercise: V1\n * Section: 7\n * Part of an online course - for more info checkout link below\n * http://acloudfan.com/learn-blockchain\n */\n\ncontract MultiNumberBettingV1 {\n\n  //TODO explicit visibility on state vairables\n  uint  loserCount;\n  uint  winnerCount;\n\n  uint8[3]  numArray;\n\n  string lastWinnerName = \"***\";\n\n  uint lastWinnerAt = 0; //probably automatically 0?\n\n  // Ex-1 Part-1\n  function MultiNumberBettingV1(uint8 num0, uint8 num1, uint8 num2) {\n    // constructor\n    numArray[0] = num0;\n    numArray[1] = num1;\n    numArray[2] = num2;\n  }\n\n  // Ex-1 Part-3\n  function guess(uint8 num, string name) returns (bool){\n    for(uint8 i = 0 ; i < numArray.length ; i++){\n      if(numArray[i] == num) {\n        // Increase the winner count\n        winnerCount++;\n        lastWinnerName = name;\n        lastWinnerAt = now;\n        return true;\n      }\n    }\n    loserCount++;\n    return false;\n  }\n\n  // Ex-2\n  function totalGuesses() returns (uint){\n    return (loserCount+winnerCount);\n  }\n\n  function getLastWinner() returns (string){\n      //TODO change to return the last/first? 3 chars\n    bytes memory result = new bytes(3);\n    bytes memory winnerBytes = bytes(lastWinnerName);\n\n    for (uint i = 0; i < 3; i++) {\n      result[i] = winnerBytes[i];\n    }\n\n    return string(result);\n\n  }\n\n  function getLastWinnerAt() returns (uint){\n    return lastWinnerAt;\n  }\n  // Ex-3\n  /**\n   * make a change to the 2_deploy_contracts.js\n   *   provide the 3 numbers to the constructor\n   * > testrpc\n   * > truffle migrate\n   * > trufle  networks\n   **/\n}\n",
  "sourcePath": "/home/something/Dev/Eth/PlayGround/MultiNumberBetting/contracts/MultiNumberBettingV1.sol",
  "compiler": {
    "name": "solc",
    "version": "0.4.21+commit.dfe3193c.Emscripten.clang"
  },
  "schemaVersion": "2.0.0",
  "updatedAt": "2018-04-27T01:57:54.948Z"
}