{
  "contractName": "MultiNumberBettingAbstractV1",
  "abi": [
    {
      "constant": true,
      "inputs": [],
      "name": "MIN_BET",
      "outputs": [
        {
          "name": "",
          "type": "uint256"
        }
      ],
      "payable": false,
      "stateMutability": "view",
      "type": "function"
    },
    {
      "constant": true,
      "inputs": [],
      "name": "MAX_BET",
      "outputs": [
        {
          "name": "",
          "type": "uint256"
        }
      ],
      "payable": false,
      "stateMutability": "view",
      "type": "function"
    },
    {
      "constant": false,
      "inputs": [
        {
          "name": "num0",
          "type": "uint8"
        },
        {
          "name": "num1",
          "type": "uint8"
        },
        {
          "name": "num2",
          "type": "uint8"
        }
      ],
      "name": "MultiNumberBettingV4",
      "outputs": [],
      "payable": false,
      "stateMutability": "nonpayable",
      "type": "function"
    },
    {
      "constant": false,
      "inputs": [
        {
          "name": "num",
          "type": "uint8"
        },
        {
          "name": "name",
          "type": "string"
        }
      ],
      "name": "guess",
      "outputs": [
        {
          "name": "",
          "type": "bool"
        }
      ],
      "payable": true,
      "stateMutability": "payable",
      "type": "function"
    },
    {
      "constant": false,
      "inputs": [],
      "name": "totalGuesses",
      "outputs": [
        {
          "name": "",
          "type": "uint256"
        }
      ],
      "payable": false,
      "stateMutability": "nonpayable",
      "type": "function"
    },
    {
      "constant": false,
      "inputs": [],
      "name": "daysSinceLastWinning",
      "outputs": [
        {
          "name": "",
          "type": "uint256"
        }
      ],
      "payable": false,
      "stateMutability": "nonpayable",
      "type": "function"
    },
    {
      "constant": false,
      "inputs": [],
      "name": "hoursSinceLastWinning",
      "outputs": [
        {
          "name": "",
          "type": "uint256"
        }
      ],
      "payable": false,
      "stateMutability": "nonpayable",
      "type": "function"
    },
    {
      "constant": false,
      "inputs": [],
      "name": "minutesSinceLastWinning",
      "outputs": [
        {
          "name": "",
          "type": "uint256"
        }
      ],
      "payable": false,
      "stateMutability": "nonpayable",
      "type": "function"
    },
    {
      "constant": false,
      "inputs": [],
      "name": "getLastWinnerInfo",
      "outputs": [
        {
          "name": "winnerAddress",
          "type": "address"
        },
        {
          "name": "name",
          "type": "string"
        },
        {
          "name": "guess",
          "type": "uint256"
        },
        {
          "name": "guessedAt",
          "type": "uint256"
        },
        {
          "name": "eth",
          "type": "uint256"
        }
      ],
      "payable": false,
      "stateMutability": "nonpayable",
      "type": "function"
    },
    {
      "constant": false,
      "inputs": [
        {
          "name": "winnerAddress",
          "type": "address"
        }
      ],
      "name": "checkWinning",
      "outputs": [
        {
          "name": "retWinnerAddress",
          "type": "address"
        },
        {
          "name": "name",
          "type": "string"
        },
        {
          "name": "guessVal",
          "type": "uint256"
        },
        {
          "name": "guessedAt",
          "type": "uint256"
        }
      ],
      "payable": false,
      "stateMutability": "nonpayable",
      "type": "function"
    }
  ],
  "bytecode": "0x6060604052341561000f57600080fd5b6104bf8061001e6000396000f3006060604052600436106100a4576000357c0100000000000000000000000000000000000000000000000000000000900463ffffffff16806315153cdc146100a957806348992bfa146100d25780635249c231146100fb5780636540742f146101ee5780636d48a043146102175780637e95b523146102405780638ef282491461026957806395583f7114610292578063cb6fc25a14610308578063ee040eb914610346575b600080fd5b34156100b457600080fd5b6100bc61041c565b6040518082815260200191505060405180910390f35b34156100dd57600080fd5b6100e5610421565b6040518082815260200191505060405180910390f35b341561010657600080fd5b610132600480803573ffffffffffffffffffffffffffffffffffffffff16906020019091905050610426565b604051808573ffffffffffffffffffffffffffffffffffffffff1673ffffffffffffffffffffffffffffffffffffffff16815260200180602001848152602001838152602001828103825285818151815260200191508051906020019080838360005b838110156101b0578082015181840152602081019050610195565b50505050905090810190601f1680156101dd5780820380516001836020036101000a031916815260200191505b509550505050505060405180910390f35b34156101f957600080fd5b61020161043a565b6040518082815260200191505060405180910390f35b341561022257600080fd5b61022a610446565b6040518082815260200191505060405180910390f35b341561024b57600080fd5b61025361044b565b6040518082815260200191505060405180910390f35b341561027457600080fd5b61027c610457565b6040518082815260200191505060405180910390f35b6102ee600480803560ff1690602001909190803590602001908201803590602001908080601f0160208091040260200160405190810160405280939291908181526020018383808284378201915050505050509190505061045c565b604051808215151515815260200191505060405180910390f35b341561031357600080fd5b610344600480803560ff1690602001909190803560ff1690602001909190803560ff16906020019091905050610464565b005b341561035157600080fd5b610359610469565b604051808673ffffffffffffffffffffffffffffffffffffffff1673ffffffffffffffffffffffffffffffffffffffff16815260200180602001858152602001848152602001838152602001828103825286818151815260200191508051906020019080838360005b838110156103dd5780820151818401526020810190506103c2565b50505050905090810190601f16801561040a5780820380516001836020036101000a031916815260200191505b50965050505050505060405180910390f35b600090565b600090565b600061043061047f565b6000809193509193565b670de0b6b3a764000081565b600090565b674563918244f4000081565b600090565b600092915050565b505050565b600061047361047f565b60008060009091929394565b6020604051908101604052806000815250905600a165627a7a723058206344fe5cf59ddfa61b7cc2d7b60ef351cc88a98b19a672a5ccbe9fd4ec3e46990029",
  "source": "pragma solidity ^0.4.4;\n\n/**\n * Exercise: V4\n * Section: 7\n * Part of an online course - for more info checkout link below\n * http://acloudfan.com/learn-blockchain\n */\ncontract MultiNumberBettingAbstractV1 {\n  //exercise is wrong about the number\n  uint constant public MAX_BET = 5 ether;\n  uint constant public MIN_BET = 1 ether;\n\n  function MultiNumberBettingV4(uint8 num0, uint8 num1, uint8 num2) {}\n\n  function guess(uint8 num, string name) payable returns (bool){}\n\n  function totalGuesses() returns (uint){}\n\n  function daysSinceLastWinning()  returns (uint){}\n\n  function hoursSinceLastWinning() returns (uint){}\n\n  function  minutesSinceLastWinning() returns (uint){}\n\n  function getLastWinnerInfo() returns (address winnerAddress,\n    string  name,\n    uint    guess,\n    uint    guessedAt,\n    uint    eth) {}\n\n  function checkWinning(address winnerAddress) public returns (address retWinnerAddress, string name, uint guessVal, uint guessedAt) {}\n}\n\ncontract MultiNumberBettingV4 is MultiNumberBettingAbstractV1 {\n\n  uint public  loserCount;\n  uint public  winnerCount;\n\n  uint public lastWinnerAt;\n  \n  //Ex - 2 Part - 1 Remove this variable\n  // string lastWinnerName ;\n\n  // Ex - 2 Part-2 Keep this\n  address winner;\n\n  // Ex-1 Part - 1  Declare a struct\n  struct Winner {\n    address winnerAddress;\n    string  name;\n    uint    guess;\n    uint    guessedAt;\n    uint    ethRec;\n  }\n  // Ex-1 Part - 2 Add a mapping\n  mapping(address=>Winner) winnersMapping;\n\n  uint8[3]  numArray;\n\n  function MultiNumberBettingV4(uint8 num0, uint8 num1, uint8 num2) {\n    // constructor\n    numArray[0] = num0;\n    numArray[1] = num1;\n    numArray[2] = num2;\n  }\n\n  \n  function guess(uint8 num, string name) payable returns (bool){\n\n    // If num > 10 revert\n    if(num > 10) {\n      //THis version of solidity cant return with revert?\n      revert();\n    }\n\n    if (msg.value > MAX_BET || msg.value < MIN_BET ) {\n      //revert ();\n    }\n\n    for (uint8 i = 0 ; i < numArray.length ; i++){\n      if (numArray[i] == num) {\n        // Increase the winner count\n        winnerCount++;\n\n        // Ex - 1 Part - 3\n        winnersMapping[msg.sender].winnerAddress = msg.sender;\n        winnersMapping[msg.sender].ethRec = msg.value;\n        winnersMapping[msg.sender].name = name;\n        winnersMapping[msg.sender].guess = num;\n        winnersMapping[msg.sender].guessedAt = now;\n\n        // Ex - 2 Part - 2 removed the lastWinnerName\n        // So delete this line\n        // lastWinnerName = name;\n\n        lastWinnerAt = winnersMapping[msg.sender].guessedAt;\n        winner = msg.sender;\n\n        msg.sender.transfer(2 * msg.value);\n\n        return true;\n      }\n    }\n    loserCount++;\n    return false;\n  }\n\n  function totalGuesses() returns (uint){\n    return (loserCount+winnerCount);\n  }\n\n\n  // Ex - 2 Part - 3 Comment delete this function\n  // function getLastWinner() returns (string){\n\n  //   bytes memory nameBytes = bytes(lastWinnerName);\n  //   // If no winner send \"***\"\n  //   if(nameBytes.length == 0) return \"***\";\n\n  //   string memory retString = new string(3);\n\n  //   bytes memory toReturn =  bytes(retString);\n\n  //   // 2nd check to cover a winner name less than 3 bytes\n  //   for(uint i=0; (i < 3) && (i < nameBytes.length) ; i++){\n  //     toReturn[i] = nameBytes[i];\n  //   }\n\n  //   return string(toReturn);\n  // }\n\n  \n  function daysSinceLastWinning()  returns (uint){\n    return (now - lastWinnerAt*1 days);\n  }\n\n  function hoursSinceLastWinning() returns (uint){\n    return (now - lastWinnerAt*1 hours);\n  }\n\n  function  minutesSinceLastWinning() returns (uint){\n    return (now - lastWinnerAt*1 minutes);\n  }\n\n  // Ex - 2 Part - 3 \n  // Remember winner holds the address of the winner so we are getting\n  // the information from the winnersMapping for the address\n  // all values will be 0x0 if winner=0x0 i.e., if there is no winner\n  function getLastWinnerInfo() returns (address winnerAddress,\n                                         string  name, \n                                         uint guess,\n                                         uint    guessedAt,\n                                         uint    eth) {\n    winnerAddress = winnersMapping[winner].winnerAddress;\n    name = winnersMapping[winner].name;\n    guess = winnersMapping[winner].guess;\n    guessedAt = winnersMapping[winner].guessedAt;\n    eth = winnersMapping[winner].ethRec;\n  }\n\n  // Ex - 3 \n  function checkWinning(address winnerAddress) public returns (address retWinnerAddress, string name, uint guessVal, uint guessedAt) {\n    Winner memory winnerLocal = winnersMapping[winnerAddress];\n    if (winnerLocal.guessedAt != 0) {\n        retWinnerAddress = winnerLocal.winnerAddress;\n        name = winnerLocal.name;\n        guessVal = winnerLocal.guess;\n        guessedAt = winnerLocal.guessedAt;\n    }\n  }\n  \n}\n",
  "sourcePath": "/home/something/Dev/Eth/PlayGround/MultiNumberBetting/contracts/MultiNumberBettingV4.sol",
  "compiler": {
    "name": "solc",
    "version": "0.4.21+commit.dfe3193c.Emscripten.clang"
  },
  "schemaVersion": "2.0.0",
  "updatedAt": "2018-05-20T16:45:40.884Z"
}