{
  "contractName": "MultiNumberBettingV1",
  "abi": [
    {
      "inputs": [
        {
          "name": "num0",
          "type": "uint8"
        },
        {
          "name": "num1",
          "type": "uint8"
        },
        {
          "name": "num2",
          "type": "uint8"
        }
      ],
      "payable": false,
      "stateMutability": "nonpayable",
      "type": "constructor"
    },
    {
      "constant": false,
      "inputs": [
        {
          "name": "",
          "type": "address"
        }
      ],
      "name": "checkWinning",
      "outputs": [
        {
          "name": "",
          "type": "address"
        },
        {
          "name": "",
          "type": "string"
        },
        {
          "name": "",
          "type": "uint8"
        },
        {
          "name": "",
          "type": "uint256"
        }
      ],
      "payable": false,
      "stateMutability": "nonpayable",
      "type": "function"
    },
    {
      "constant": false,
      "inputs": [
        {
          "name": "num",
          "type": "uint8"
        },
        {
          "name": "name",
          "type": "string"
        }
      ],
      "name": "guess",
      "outputs": [
        {
          "name": "",
          "type": "bool"
        }
      ],
      "payable": false,
      "stateMutability": "nonpayable",
      "type": "function"
    },
    {
      "constant": false,
      "inputs": [],
      "name": "totalGuesses",
      "outputs": [
        {
          "name": "",
          "type": "uint256"
        }
      ],
      "payable": false,
      "stateMutability": "nonpayable",
      "type": "function"
    },
    {
      "constant": false,
      "inputs": [],
      "name": "getLastWinnerAt",
      "outputs": [
        {
          "name": "",
          "type": "uint256"
        }
      ],
      "payable": false,
      "stateMutability": "nonpayable",
      "type": "function"
    },
    {
      "constant": false,
      "inputs": [],
      "name": "daysSinceLastWinning",
      "outputs": [
        {
          "name": "",
          "type": "uint256"
        }
      ],
      "payable": false,
      "stateMutability": "nonpayable",
      "type": "function"
    },
    {
      "constant": false,
      "inputs": [],
      "name": "hoursSinceLastWinning",
      "outputs": [
        {
          "name": "",
          "type": "uint256"
        }
      ],
      "payable": false,
      "stateMutability": "nonpayable",
      "type": "function"
    },
    {
      "constant": false,
      "inputs": [],
      "name": "minutesSinceLastWinning",
      "outputs": [
        {
          "name": "",
          "type": "uint256"
        }
      ],
      "payable": false,
      "stateMutability": "nonpayable",
      "type": "function"
    }
  ],
  "bytecode": "0x60606040526000600455341561001457600080fd5b6040516060806109ba83398101604052808051906020019091908051906020019091908051906020019091905050826003600060038110151561005357fe5b602091828204019190066101000a81548160ff021916908360ff160217905550816003600160038110151561008457fe5b602091828204019190066101000a81548160ff021916908360ff16021790555080600360026003811015156100b557fe5b602091828204019190066101000a81548160ff021916908360ff1602179055505050506108d3806100e76000396000f300606060405260043610610083576000357c0100000000000000000000000000000000000000000000000000000000900463ffffffff16806315153cdc14610088578063383cf3f2146100b157806348992bfa146100da5780635249c231146101035780636d48a043146101fc5780638ef282491461022557806395583f711461024e575b600080fd5b341561009357600080fd5b61009b6102cf565b6040518082815260200191505060405180910390f35b34156100bc57600080fd5b6100c4610302565b6040518082815260200191505060405180910390f35b34156100e557600080fd5b6100ed61030c565b6040518082815260200191505060405180910390f35b341561010e57600080fd5b61013a600480803573ffffffffffffffffffffffffffffffffffffffff16906020019091905050610318565b604051808573ffffffffffffffffffffffffffffffffffffffff1673ffffffffffffffffffffffffffffffffffffffff168152602001806020018460ff1660ff168152602001838152602001828103825285818151815260200191508051906020019080838360005b838110156101be5780820151818401526020810190506101a3565b50505050905090810190601f1680156101eb5780820380516001836020036101000a031916815260200191505b509550505050505060405180910390f35b341561020757600080fd5b61020f610590565b6040518082815260200191505060405180910390f35b341561023057600080fd5b6102386105cf565b6040518082815260200191505060405180910390f35b341561025957600080fd5b6102b5600480803560ff1690602001909190803590602001908201803590602001908080601f016020809104026020016040519081016040528093929190818152602001838380828437820191505050505050919050506105dd565b604051808215151515815260200191505060405180910390f35b60008060045411156102fe57603c8060045442038115156102ec57fe5b048115156102f657fe5b0490506102ff565b5b90565b6000600454905090565b60006004544203905090565b6000610322610792565b60008060056000600260009054906101000a900473ffffffffffffffffffffffffffffffffffffffff1673ffffffffffffffffffffffffffffffffffffffff1673ffffffffffffffffffffffffffffffffffffffff16815260200190815260200160002060000160009054906101000a900473ffffffffffffffffffffffffffffffffffffffff1660056000600260009054906101000a900473ffffffffffffffffffffffffffffffffffffffff1673ffffffffffffffffffffffffffffffffffffffff1673ffffffffffffffffffffffffffffffffffffffff16815260200190815260200160002060010160056000600260009054906101000a900473ffffffffffffffffffffffffffffffffffffffff1673ffffffffffffffffffffffffffffffffffffffff1673ffffffffffffffffffffffffffffffffffffffff16815260200190815260200160002060020160009054906101000a900460ff1660056000600260009054906101000a900473ffffffffffffffffffffffffffffffffffffffff1673ffffffffffffffffffffffffffffffffffffffff1673ffffffffffffffffffffffffffffffffffffffff16815260200190815260200160002060030154828054600181600116156101000203166002900480601f01602080910402602001604051908101604052809291908181526020018280546001816001161561010002031660029004801561057a5780601f1061054f5761010080835404028352916020019161057a565b820191906000526020600020905b81548152906001019060200180831161055d57829003601f168201915b5050505050925093509350935093509193509193565b60008060045411156105cb576018603c8060045442038115156105af57fe5b048115156105b957fe5b048115156105c357fe5b0490506105cc565b5b90565b600060015460005401905090565b6000806105e86107a6565b600a8560ff161015156105f757fe5b600091505b60038260ff161015610774578460ff1660038360ff1660038110151561061e57fe5b602091828204019190069054906101000a900460ff1660ff161415610767576001600081548092919060010191905055506080604051908101604052803373ffffffffffffffffffffffffffffffffffffffff1681526020018581526020018660ff16815260200142815250905080600560003373ffffffffffffffffffffffffffffffffffffffff1673ffffffffffffffffffffffffffffffffffffffff16815260200190815260200160002060008201518160000160006101000a81548173ffffffffffffffffffffffffffffffffffffffff021916908373ffffffffffffffffffffffffffffffffffffffff160217905550602082015181600101908051906020019061072f9291906107ee565b5060408201518160020160006101000a81548160ff021916908360ff160217905550606082015181600301559050506001925061078a565b81806001019250506105fc565b6000808154809291906001019190505550600092505b505092915050565b602060405190810160405280600081525090565b608060405190810160405280600073ffffffffffffffffffffffffffffffffffffffff1681526020016107d761086e565b8152602001600060ff168152602001600081525090565b828054600181600116156101000203166002900490600052602060002090601f016020900481019282601f1061082f57805160ff191683800117855561085d565b8280016001018555821561085d579182015b8281111561085c578251825591602001919060010190610841565b5b50905061086a9190610882565b5090565b602060405190810160405280600081525090565b6108a491905b808211156108a0576000816000905550600101610888565b5090565b905600a165627a7a7230582025f2dd33ee1be1591cfcd048c478317998d22b1331b33966bb2ca33cb8a5e5e60029",
  "source": "pragma solidity ^0.4.17;\n\n/**\n * Exercise: V1\n * Section: 7\n * Part of an online course - for more info checkout link below\n * http://acloudfan.com/learn-blockchain\n */\n\ncontract MultiNumberBettingV1 {\n\n  //TODO explicit visibility on state vairables\n  //TODO delete state vars in struct\n  uint  loserCount;\n  uint  winnerCount;\n  address winner;\n\n  uint8[3]  numArray;\n\n  uint lastWinnerAt = 0; //probably automatically 0?\n\n  struct Winner {\n    address winnerAddress;\n    string name;\n    uint8 guess;\n    uint guessedAt;\n  }\n\n  mapping(address => Winner) winningAddresses;\n\n  // Ex-1 Part-1\n  function MultiNumberBettingV1(uint8 num0, uint8 num1, uint8 num2) {\n    // constructor\n    numArray[0] = num0;\n    numArray[1] = num1;\n    numArray[2] = num2;\n  }\n  function checkWinning(address) returns(address, string, uint8, uint) {\n    return (winningAddresses[winner].winnerAddress, winningAddresses[winner].name,\n      winningAddresses[winner].guess, winningAddresses[winner].guessedAt);\n  }\n\n  // Ex-1 Part-3\n  function guess(uint8 num, string name) returns (bool){\n    assert(num < 10);\n\n    for(uint8 i = 0 ; i < numArray.length ; i++){\n      if(numArray[i] == num) {\n        // Increase the winner count\n        winnerCount++;\n        Winner memory win = Winner(msg.sender, name, num, now);\n        //lastWinnerName = name;\n        //lastWinnerAt = now;\n        //winner = msg.sender;\n        winningAddresses[msg.sender] = win;\n        return true;\n      }\n    }\n    loserCount++;\n    return false;\n  }\n\n  // Ex-2\n  function totalGuesses() returns (uint){\n    return (loserCount+winnerCount);\n  }\n\n    /*\n  function getLastWinner() returns (string){\n      //TODO change to return the last/first? 3 chars\n    bytes memory result = new bytes(3);\n    bytes memory winnerBytes = bytes(lastWinnerName);\n\n    for (uint i = 0; i < 3; i++) {\n      result[i] = winnerBytes[i];\n    }\n\n    return string(result);\n\n  }\n  */\n\n  //TODO delete\n  function getLastWinnerAt() returns (uint){\n    return lastWinnerAt;\n  }\n\n  function daysSinceLastWinning() returns (uint){\n      if (lastWinnerAt > 0) {\n        return (now - lastWinnerAt) / 60 / 60 / 24;\n        //dont really care if i got this right\n      }\n  }\n\n  function hoursSinceLastWinning() returns (uint){\n    if (lastWinnerAt > 0) {\n      return (now - lastWinnerAt) / 60 / 60;\n    }\n  }\n\n  function minutesSinceLastWinning() returns (uint){\n    //if (lastWinnerAt > 0) {\n      //return ((now - lastWinnerAt) / 60);\n    return  now - lastWinnerAt;\n    //}\n  }\n\n  // Ex-3\n  /**\n   * make a change to the 2_deploy_contracts.js\n   *   provide the 3 numbers to the constructor\n   * > testrpc\n   * > truffle migrate\n   * > trufle  networks\n   **/\n}\n",
  "sourcePath": "/home/something/Dev/Eth/PlayGround/MultiNumberBetting/contracts/MultiNumberBettingV1.sol",
  "compiler": {
    "name": "solc",
    "version": "0.4.21+commit.dfe3193c.Emscripten.clang"
  },
  "schemaVersion": "2.0.0",
  "updatedAt": "2018-05-04T11:53:40.383Z"
}