{
  "contractName": "MultiNumberBettingV1",
  "abi": [
    {
      "inputs": [
        {
          "name": "num0",
          "type": "uint8"
        },
        {
          "name": "num1",
          "type": "uint8"
        },
        {
          "name": "num2",
          "type": "uint8"
        }
      ],
      "payable": false,
      "stateMutability": "nonpayable",
      "type": "constructor"
    },
    {
      "constant": false,
      "inputs": [
        {
          "name": "num",
          "type": "uint8"
        },
        {
          "name": "name",
          "type": "string"
        }
      ],
      "name": "guess",
      "outputs": [
        {
          "name": "",
          "type": "bool"
        }
      ],
      "payable": false,
      "stateMutability": "nonpayable",
      "type": "function"
    },
    {
      "constant": false,
      "inputs": [],
      "name": "totalGuesses",
      "outputs": [
        {
          "name": "",
          "type": "uint256"
        }
      ],
      "payable": false,
      "stateMutability": "nonpayable",
      "type": "function"
    },
    {
      "constant": false,
      "inputs": [],
      "name": "getLastWinner",
      "outputs": [
        {
          "name": "",
          "type": "string"
        }
      ],
      "payable": false,
      "stateMutability": "nonpayable",
      "type": "function"
    },
    {
      "constant": false,
      "inputs": [],
      "name": "getLastWinnerAt",
      "outputs": [
        {
          "name": "",
          "type": "uint256"
        }
      ],
      "payable": false,
      "stateMutability": "nonpayable",
      "type": "function"
    },
    {
      "constant": false,
      "inputs": [],
      "name": "daysSinceLastWinning",
      "outputs": [
        {
          "name": "",
          "type": "uint256"
        }
      ],
      "payable": false,
      "stateMutability": "nonpayable",
      "type": "function"
    },
    {
      "constant": false,
      "inputs": [],
      "name": "hoursSinceLastWinning",
      "outputs": [
        {
          "name": "",
          "type": "uint256"
        }
      ],
      "payable": false,
      "stateMutability": "nonpayable",
      "type": "function"
    },
    {
      "constant": false,
      "inputs": [],
      "name": "minutesSinceLastWinning",
      "outputs": [
        {
          "name": "",
          "type": "uint256"
        }
      ],
      "payable": false,
      "stateMutability": "nonpayable",
      "type": "function"
    }
  ],
  "bytecode": "0x60606040526040805190810160405280600381526020017f2a2a2a00000000000000000000000000000000000000000000000000000000008152506004908051906020019061004f929190610129565b506000600555341561006057600080fd5b60405160608061086483398101604052808051906020019091908051906020019091908051906020019091905050826003600060038110151561009f57fe5b602091828204019190066101000a81548160ff021916908360ff16021790555081600360016003811015156100d057fe5b602091828204019190066101000a81548160ff021916908360ff160217905550806003600260038110151561010157fe5b602091828204019190066101000a81548160ff021916908360ff1602179055505050506101ce565b828054600181600116156101000203166002900490600052602060002090601f016020900481019282601f1061016a57805160ff1916838001178555610198565b82800160010185558215610198579182015b8281111561019757825182559160200191906001019061017c565b5b5090506101a591906101a9565b5090565b6101cb91905b808211156101c75760008160009055506001016101af565b5090565b90565b610687806101dd6000396000f300606060405260043610610083576000357c0100000000000000000000000000000000000000000000000000000000900463ffffffff16806315153cdc14610088578063383cf3f2146100b157806348992bfa146100da5780636d48a043146101035780638ef282491461012c57806395583f7114610155578063f88649a1146101d6575b600080fd5b341561009357600080fd5b61009b610264565b6040518082815260200191505060405180910390f35b34156100bc57600080fd5b6100c4610297565b6040518082815260200191505060405180910390f35b34156100e557600080fd5b6100ed6102a1565b6040518082815260200191505060405180910390f35b341561010e57600080fd5b6101166102ad565b6040518082815260200191505060405180910390f35b341561013757600080fd5b61013f6102ec565b6040518082815260200191505060405180910390f35b341561016057600080fd5b6101bc600480803560ff1690602001909190803590602001908201803590602001908080601f016020809104026020016040519081016040528093929190818152602001838380828437820191505050505050919050506102fa565b604051808215151515815260200191505060405180910390f35b34156101e157600080fd5b6101e96103f6565b6040518080602001828103825283818151815260200191508051906020019080838360005b8381101561022957808201518184015260208101905061020e565b50505050905090810190601f1680156102565780820380516001836020036101000a031916815260200191505b509250505060405180910390f35b600080600554111561029357603c80600554420381151561028157fe5b0481151561028b57fe5b049050610294565b5b90565b6000600554905090565b60006005544203905090565b60008060055411156102e8576018603c8060055442038115156102cc57fe5b048115156102d657fe5b048115156102e057fe5b0490506102e9565b5b90565b600060015460005401905090565b600080600a8460ff1610151561030c57fe5b600090505b60038160ff1610156103d9578360ff1660038260ff1660038110151561033357fe5b602091828204019190069054906101000a900460ff1660ff1614156103cc57600160008154809291906001019190505550826004908051906020019061037a92919061058e565b504260058190555033600260006101000a81548173ffffffffffffffffffffffffffffffffffffffff021916908373ffffffffffffffffffffffffffffffffffffffff160217905550600191506103ef565b8080600101915050610311565b6000808154809291906001019190505550600091505b5092915050565b6103fe61060e565b610406610622565b61040e610622565b6000600360405180591061041f5750595b9080825280601f01601f1916602001820160405250925060048054600181600116156101000203166002900480601f0160208091040260200160405190810160405280929190818152602001828054600181600116156101000203166002900480156104cc5780601f106104a1576101008083540402835291602001916104cc565b820191906000526020600020905b8154815290600101906020018083116104af57829003601f168201915b50505050509150600090505b60038110156105855781818151811015156104ef57fe5b9060200101517f010000000000000000000000000000000000000000000000000000000000000090047f010000000000000000000000000000000000000000000000000000000000000002838281518110151561054857fe5b9060200101907effffffffffffffffffffffffffffffffffffffffffffffffffffffffffffff1916908160001a90535080806001019150506104d8565b82935050505090565b828054600181600116156101000203166002900490600052602060002090601f016020900481019282601f106105cf57805160ff19168380011785556105fd565b828001600101855582156105fd579182015b828111156105fc5782518255916020019190600101906105e1565b5b50905061060a9190610636565b5090565b602060405190810160405280600081525090565b602060405190810160405280600081525090565b61065891905b8082111561065457600081600090555060010161063c565b5090565b905600a165627a7a72305820001555b9ffc6579313223ca74c645c3781c0861082a4d2eddb05b1749f200c280029",
  "source": "pragma solidity ^0.4.17;\n\n/**\n * Exercise: V1\n * Section: 7\n * Part of an online course - for more info checkout link below\n * http://acloudfan.com/learn-blockchain\n */\n\ncontract MultiNumberBettingV1 {\n\n  //TODO explicit visibility on state vairables\n  uint  loserCount;\n  uint  winnerCount;\n  address winner;\n\n  uint8[3]  numArray;\n\n  string lastWinnerName = \"***\";\n\n  uint lastWinnerAt = 0; //probably automatically 0?\n\n  // Ex-1 Part-1\n  function MultiNumberBettingV1(uint8 num0, uint8 num1, uint8 num2) {\n    // constructor\n    numArray[0] = num0;\n    numArray[1] = num1;\n    numArray[2] = num2;\n  }\n\n  // Ex-1 Part-3\n  function guess(uint8 num, string name) returns (bool){\n    assert(num < 10);\n\n    for(uint8 i = 0 ; i < numArray.length ; i++){\n      if(numArray[i] == num) {\n        // Increase the winner count\n        winnerCount++;\n        lastWinnerName = name;\n        lastWinnerAt = now;\n        winner = msg.sender;\n        return true;\n      }\n    }\n    loserCount++;\n    return false;\n  }\n\n  // Ex-2\n  function totalGuesses() returns (uint){\n    return (loserCount+winnerCount);\n  }\n\n  function getLastWinner() returns (string){\n      //TODO change to return the last/first? 3 chars\n    bytes memory result = new bytes(3);\n    bytes memory winnerBytes = bytes(lastWinnerName);\n\n    for (uint i = 0; i < 3; i++) {\n      result[i] = winnerBytes[i];\n    }\n\n    return string(result);\n\n  }\n\n  //TODO delete\n  function getLastWinnerAt() returns (uint){\n    return lastWinnerAt;\n  }\n\n  function daysSinceLastWinning() returns (uint){\n      if (lastWinnerAt > 0) {\n        return (now - lastWinnerAt) / 60 / 60 / 24;\n        //dont really care if i got this right\n      }\n  }\n\n  function hoursSinceLastWinning() returns (uint){\n    if (lastWinnerAt > 0) {\n      return (now - lastWinnerAt) / 60 / 60;\n    }\n  }\n\n  function minutesSinceLastWinning() returns (uint){\n    //if (lastWinnerAt > 0) {\n      //return ((now - lastWinnerAt) / 60);\n    return  now - lastWinnerAt;\n    //}\n  }\n\n  // Ex-3\n  /**\n   * make a change to the 2_deploy_contracts.js\n   *   provide the 3 numbers to the constructor\n   * > testrpc\n   * > truffle migrate\n   * > trufle  networks\n   **/\n}\n",
  "sourcePath": "/home/something/Dev/Eth/PlayGround/MultiNumberBetting/contracts/MultiNumberBettingV1.sol",
  "compiler": {
    "name": "solc",
    "version": "0.4.21+commit.dfe3193c.Emscripten.clang"
  },
  "schemaVersion": "2.0.0",
  "updatedAt": "2018-05-01T01:41:37.977Z"
}