{
  "contractName": "MultiNumberBettingV1",
  "abi": [
    {
      "inputs": [
        {
          "name": "num0",
          "type": "uint8"
        },
        {
          "name": "num1",
          "type": "uint8"
        },
        {
          "name": "num2",
          "type": "uint8"
        }
      ],
      "payable": false,
      "stateMutability": "nonpayable",
      "type": "constructor"
    },
    {
      "constant": false,
      "inputs": [
        {
          "name": "num",
          "type": "uint8"
        }
      ],
      "name": "guess",
      "outputs": [
        {
          "name": "",
          "type": "bool"
        }
      ],
      "payable": false,
      "stateMutability": "nonpayable",
      "type": "function"
    },
    {
      "constant": false,
      "inputs": [],
      "name": "totalGuesses",
      "outputs": [
        {
          "name": "",
          "type": "uint256"
        }
      ],
      "payable": false,
      "stateMutability": "nonpayable",
      "type": "function"
    }
  ],
  "bytecode": "0x6060604052341561000f57600080fd5b60405160608061026083398101604052808051906020019091908051906020019091908051906020019091905050826002600060038110151561004e57fe5b602091828204019190066101000a81548160ff021916908360ff160217905550816002600160038110151561007f57fe5b602091828204019190066101000a81548160ff021916908360ff160217905550806002806003811015156100af57fe5b602091828204019190066101000a81548160ff021916908360ff16021790555050505061017f806100e16000396000f30060606040526004361061004c576000357c0100000000000000000000000000000000000000000000000000000000900463ffffffff1680634ba4c16b146100515780638ef282491461008f575b600080fd5b341561005c57600080fd5b610075600480803560ff169060200190919050506100b8565b604051808215151515815260200191505060405180910390f35b341561009a57600080fd5b6100a2610145565b6040518082815260200191505060405180910390f35b600080600090505b60038160ff161015610129578260ff1660028260ff166003811015156100e257fe5b602091828204019190069054906101000a900460ff1660ff16141561011c576001600081548092919060010191905055506001915061013f565b80806001019150506100c0565b6000808154809291906001019190505550600091505b50919050565b6000600154600054019050905600a165627a7a72305820951e84431d2d6abcf779fe1280edc1a90511e4ba1afc1ea9040eaf840630a9890029",
  "source": "pragma solidity ^0.4.17;\n\n/**\n * Exercise: V1\n * Section: 7\n * Part of an online course - for more info checkout link below\n * http://acloudfan.com/learn-blockchain\n */\n\ncontract MultiNumberBettingV1 {\n\n  // Ex-1 Part-2\n  uint  loserCount;\n  uint  winnerCount;\n\n  uint8[3]  numArray;\n\n  // Ex-1 Part-1\n  function MultiNumberBettingV1(uint8 num0, uint8 num1, uint8 num2) {\n    // constructor\n    numArray[0] = num0;\n    numArray[1] = num1;\n    numArray[2] = num2;\n  }\n\n  // Ex-1 Part-3\n  function guess(uint8 num) returns (bool){\n    for(uint8 i = 0 ; i < numArray.length ; i++){\n      if(numArray[i] == num) {\n        // Increase the winner count\n        winnerCount++;\n        return true;\n      }\n    }\n    loserCount++;\n    return false;\n  }\n\n  // Ex-2\n  function totalGuesses() returns (uint){\n    return (loserCount+winnerCount);\n  }\n\n  // Ex-3\n  /**\n   * make a change to the 2_deploy_contracts.js\n   *   provide the 3 numbers to the constructor\n   * > testrpc\n   * > truffle migrate\n   * > trufle  networks\n   **/\n}\n",
  "sourcePath": "/home/something/Dev/Eth/PlayGround/MultiNumberBetting/contracts/MultiNumberBettingV1.sol",
  "compiler": {
    "name": "solc",
    "version": "0.4.21+commit.dfe3193c.Emscripten.clang"
  },
  "schemaVersion": "2.0.0",
  "updatedAt": "2018-04-21T14:24:03.300Z"
}