{
  "contractName": "Up",
  "abi": [
    {
      "constant": false,
      "inputs": [
        {
          "name": "amount",
          "type": "uint256"
        }
      ],
      "name": "deposit",
      "outputs": [],
      "payable": true,
      "stateMutability": "payable",
      "type": "function"
    },
    {
      "constant": true,
      "inputs": [],
      "name": "hi",
      "outputs": [
        {
          "name": "",
          "type": "uint256"
        }
      ],
      "payable": false,
      "stateMutability": "view",
      "type": "function"
    }
  ],
  "bytecode": "0x606060405260008060006101000a81548160ff021916908315150217905550341561002957600080fd5b60e8806100376000396000f3006060604052600436106049576000357c0100000000000000000000000000000000000000000000000000000000900463ffffffff168063a99dca3f14604e578063b6b55f25146074575b600080fd5b3415605857600080fd5b605e608a565b6040518082815260200191505060405180910390f35b608860048080359060200190919050506092565b005b600042905090565b8034141515609f57600080fd5b60016000806101000a81548160ff021916908315150217905550505600a165627a7a7230582004b3067521fdc2e1a8b81e50134441f7a0cb30ceb8c3f8bedc46594edaba13130029",
  "source": "pragma solidity ^0.4.17;\n//import '/home/something/Dev/Eth/node_modules/openzeppelin-solidity/contracts/ownership/Ownable.sol';\n//^truffle version issue. huge waste of time\ncontract Up {\n\n    //flag if eth is deposited and contract is used\n    bool isUsed = false;\n\n    //TODO time parameter\n    function deposit(uint256 amount) payable public{\n        require(msg.value == amount);\n\n        isUsed = true;\n\n    }\n\n    function hi() public view returns (uint256){\n        //return \"testing Up\" + bytes32(now);\n        return  now;\n    }\n}\n",
  "sourcePath": "/home/something/Dev/Eth/PlayGround/up1/contracts/Up.sol",
  "compiler": {
    "name": "solc",
    "version": "0.4.21+commit.dfe3193c.Emscripten.clang"
  },
  "schemaVersion": "2.0.0",
  "updatedAt": "2018-09-09T16:26:16.095Z"
}