{
  "contractName": "Up",
  "abi": [
    {
      "constant": false,
      "inputs": [
        {
          "name": "amount",
          "type": "uint256"
        },
        {
          "name": "length",
          "type": "uint256"
        }
      ],
      "name": "deposit",
      "outputs": [],
      "payable": true,
      "stateMutability": "payable",
      "type": "function"
    },
    {
      "constant": false,
      "inputs": [],
      "name": "withdraw",
      "outputs": [],
      "payable": false,
      "stateMutability": "nonpayable",
      "type": "function"
    },
    {
      "constant": true,
      "inputs": [],
      "name": "hi",
      "outputs": [
        {
          "name": "",
          "type": "uint256"
        }
      ],
      "payable": false,
      "stateMutability": "view",
      "type": "function"
    }
  ],
  "bytecode": "0x606060405260008060006101000a81548160ff021916908315150217905550341561002957600080fd5b6101eb806100386000396000f300606060405260043610610057576000357c0100000000000000000000000000000000000000000000000000000000900463ffffffff1680633ccfd60b1461005c578063a99dca3f14610071578063e2bbb1581461009a575b600080fd5b341561006757600080fd5b61006f6100bb565b005b341561007c57600080fd5b610084610141565b6040518082815260200191505060405180910390f35b6100b96004808035906020019091908035906020019091905050610149565b005b60015442111561013f57600060019054906101000a900473ffffffffffffffffffffffffffffffffffffffff1673ffffffffffffffffffffffffffffffffffffffff166108fc3073ffffffffffffffffffffffffffffffffffffffff16319081150290604051600060405180830381858888f19350505050151561013e57600080fd5b5b565b600042905090565b813414151561015757600080fd5b33600060016101000a81548173ffffffffffffffffffffffffffffffffffffffff021916908373ffffffffffffffffffffffffffffffffffffffff16021790555060016000806101000a81548160ff02191690831515021790555080420160018190555050505600a165627a7a7230582008f37c26a29f0d60cbc0500a2465eb985f1e3bc1d93d95fb1d7317a1f40d5d040029",
  "source": "pragma solidity ^0.4.17;\n//import '/home/something/Dev/Eth/node_modules/openzeppelin-solidity/contracts/ownership/Ownable.sol';\n//^truffle version issue. huge waste of time\ncontract Up {\n\n    //flag if eth is deposited and contract is used\n    bool isUsed = false;\n    //creator address\n    address ownerAddress;\n\n    uint256 endTime;\n\n    //TODO deal with time conversion on front end\n    //TODO limit on length\n    //TODO check for overflows once openzeppelin can be imported\n    function deposit(uint256 amount, uint256 length) payable public{\n        require(msg.value == amount);\n\n        ownerAddress = msg.sender;\n        isUsed = true;\n        endTime = now + length;\n    }\n\n    //TODO code to verify owner (save creator address)\n    function withdraw() public{\n        if (now > endTime) {\n            ownerAddress.transfer(address(this).balance);\n            //send back money\n        }\n    }\n\n    function hi() public view returns (uint256){\n        //return \"testing Up\" + bytes32(now);\n        return  now;\n    }\n}\n",
  "sourcePath": "/home/something/Dev/Eth/PlayGround/up1/contracts/Up.sol",
  "compiler": {
    "name": "solc",
    "version": "0.4.21+commit.dfe3193c.Emscripten.clang"
  },
  "schemaVersion": "2.0.0",
  "updatedAt": "2018-09-10T00:10:18.102Z"
}