{
  "contractName": "Up",
  "abi": [
    {
      "anonymous": false,
      "inputs": [
        {
          "indexed": false,
          "name": "amount",
          "type": "uint256"
        },
        {
          "indexed": false,
          "name": "length",
          "type": "uint256"
        }
      ],
      "name": "Deposit",
      "type": "event"
    },
    {
      "anonymous": false,
      "inputs": [],
      "name": "Withdraw",
      "type": "event"
    },
    {
      "constant": false,
      "inputs": [
        {
          "name": "amount",
          "type": "uint256"
        },
        {
          "name": "length",
          "type": "uint256"
        }
      ],
      "name": "deposit",
      "outputs": [],
      "payable": true,
      "stateMutability": "payable",
      "type": "function"
    },
    {
      "constant": false,
      "inputs": [],
      "name": "withdraw",
      "outputs": [],
      "payable": false,
      "stateMutability": "nonpayable",
      "type": "function"
    }
  ],
  "bytecode": "0x606060405260008060006101000a81548160ff021916908315150217905550341561002957600080fd5b61021a806100386000396000f30060606040526004361061004c576000357c0100000000000000000000000000000000000000000000000000000000900463ffffffff1680633ccfd60b14610051578063e2bbb15814610066575b600080fd5b341561005c57600080fd5b610064610087565b005b6100856004808035906020019091908035906020019091905050610139565b005b60015442111561010b57600060019054906101000a900473ffffffffffffffffffffffffffffffffffffffff1673ffffffffffffffffffffffffffffffffffffffff166108fc3073ffffffffffffffffffffffffffffffffffffffff16319081150290604051600060405180830381858888f19350505050151561010a57600080fd5b5b7f57ea89b6814fccbbe8728fa89cc8e6b5477e559b2a34e946e105b11112e94b5860405160405180910390a1565b813414151561014757600080fd5b33600060016101000a81548173ffffffffffffffffffffffffffffffffffffffff021916908373ffffffffffffffffffffffffffffffffffffffff16021790555060016000806101000a81548160ff0219169083151502179055508042016001819055507fa3af609bf46297028ce551832669030f9effef2b02606d02cbbcc40fe6b47c558282604051808381526020018281526020019250505060405180910390a150505600a165627a7a72305820b2cfb6ed3b4a0b0b3ffd7740207f374ceb7c7e950f08ed337507c59d657d137b0029",
  "source": "pragma solidity ^0.4.17;\n//import '/home/something/Dev/Eth/node_modules/openzeppelin-solidity/contracts/ownership/Ownable.sol';\n//^truffle version issue. huge waste of time\n// ^this is an issue with some npm modules at a higher directoy i think\ncontract Up {\n\n    //flag if eth is deposited and contract is used\n    bool isUsed = false;\n    //creator address\n    address ownerAddress;\n\n    uint256 endTime;\n\n    event Deposit(uint256 amount, uint256 length);\n    event Withdraw();\n\n    //TODO deal with time conversion on front end\n    //TODO limit on length\n    //TODO check for overflows once openzeppelin can be imported\n    function deposit(uint256 amount, uint256 length) payable public{\n        require(msg.value == amount);\n\n        ownerAddress = msg.sender;\n        isUsed = true;\n        endTime = now + length;\n        emit Deposit(amount, length);\n    }\n\n    //TODO code to verify owner (save creator address). is this really needed???\n    function withdraw() public{\n        if (now > endTime) {\n            ownerAddress.transfer(address(this).balance);\n            //send back money\n        }\n        emit Withdraw();\n        //TODO contract suicide\n    }\n}\n\ncontract UpFactory {\n    mapping (address => address) ups;\n    event PactCreated(address _address);\n\n    //TODO test\n    function createPact() public {\n        if (ups[msg.sender] == 0) { //one contract per factory\n            //TODO fire event\n            ups[msg.sender] = new Up();\n\n            emit PactCreated(ups[msg.sender]);\n            //TODO roll the deposit in with the creation?\n        }\n    }\n\n    function deposit(uint256 amount, uint256 length) payable public{\n        require(ups[msg.sender] != 0);\n        Up(ups[msg.sender]).deposit(amount, length);\n    }\n\n    function withdraw() public{\n        require(ups[msg.sender] != 0);\n        Up(ups[msg.sender]).withdraw();\n    }\n}\n",
  "sourcePath": "/home/something/Dev/Eth/PlayGround/up1/contracts/Up.sol",
  "compiler": {
    "name": "solc",
    "version": "0.4.21+commit.dfe3193c.Emscripten.clang"
  },
  "schemaVersion": "2.0.0",
  "updatedAt": "2018-10-27T01:10:58.370Z"
}