{
  "contractName": "Up",
  "abi": [
    {
      "constant": true,
      "inputs": [],
      "name": "hi",
      "outputs": [
        {
          "name": "",
          "type": "uint256"
        }
      ],
      "payable": false,
      "stateMutability": "view",
      "type": "function"
    }
  ],
  "bytecode": "0x60606040523415600e57600080fd5b609e8061001c6000396000f300606060405260043610603f576000357c0100000000000000000000000000000000000000000000000000000000900463ffffffff168063a99dca3f146044575b600080fd5b3415604e57600080fd5b6054606a565b6040518082815260200191505060405180910390f35b6000429050905600a165627a7a72305820811452103cbfa01a932f89d6f5ca00dca3700565b773862d04d14ffd4247833f0029",
  "source": "pragma solidity ^0.4.17;\n\ncontract Up {\n    function hi() public view returns (uint256){\n        //return \"testing Up\" + bytes32(now);\n        return  now;\n    }\n}\n",
  "sourcePath": "/home/something/Dev/Eth/PlayGround/up1/contracts/Up.sol",
  "compiler": {
    "name": "solc",
    "version": "0.4.21+commit.dfe3193c.Emscripten.clang"
  },
  "schemaVersion": "2.0.0",
  "updatedAt": "2018-09-08T15:41:55.156Z"
}