{
  "contractName": "Up",
  "abi": [
    {
      "constant": false,
      "inputs": [
        {
          "name": "amount",
          "type": "uint256"
        },
        {
          "name": "length",
          "type": "uint256"
        }
      ],
      "name": "deposit",
      "outputs": [],
      "payable": true,
      "stateMutability": "payable",
      "type": "function"
    },
    {
      "constant": false,
      "inputs": [],
      "name": "withdraw",
      "outputs": [],
      "payable": false,
      "stateMutability": "nonpayable",
      "type": "function"
    },
    {
      "constant": true,
      "inputs": [],
      "name": "hi",
      "outputs": [
        {
          "name": "",
          "type": "uint256"
        }
      ],
      "payable": false,
      "stateMutability": "view",
      "type": "function"
    }
  ],
  "bytecode": "0x606060405260008060006101000a81548160ff021916908315150217905550341561002957600080fd5b610119806100386000396000f3006060604052600436106053576000357c0100000000000000000000000000000000000000000000000000000000900463ffffffff1680633ccfd60b146058578063a99dca3f14606a578063e2bbb158146090575b600080fd5b3415606257600080fd5b606860af565b005b3415607457600080fd5b607a60b1565b6040518082815260200191505060405180910390f35b60ad600480803590602001909190803590602001909190505060b9565b005b565b600042905090565b813414151560c657600080fd5b60016000806101000a81548160ff02191690831515021790555080420160018190555050505600a165627a7a72305820a173c7be3c928a2ce8f9e54546859f9b54638319642abcca34ebdb5e7034b00c0029",
  "source": "pragma solidity ^0.4.17;\n//import '/home/something/Dev/Eth/node_modules/openzeppelin-solidity/contracts/ownership/Ownable.sol';\n//^truffle version issue. huge waste of time\ncontract Up {\n\n    //flag if eth is deposited and contract is used\n    bool isUsed = false;\n    uint256 endTime;\n\n    //TODO deal with time conversion on front end\n    //TODO limit on length\n    //TODO check for overflows once openzeppelin can be imported\n    function deposit(uint256 amount, uint256 length) payable public{\n        require(msg.value == amount);\n\n        isUsed = true;\n        endTime = now + length;\n    }\n\n    //TODO code to verify owner (save creator address)\n    function withdraw() public{\n        if (now > endTime) {\n            //send back money\n        }\n    }\n\n    function hi() public view returns (uint256){\n        //return \"testing Up\" + bytes32(now);\n        return  now;\n    }\n}\n",
  "sourcePath": "/home/something/Dev/Eth/PlayGround/up1/contracts/Up.sol",
  "compiler": {
    "name": "solc",
    "version": "0.4.21+commit.dfe3193c.Emscripten.clang"
  },
  "schemaVersion": "2.0.0",
  "updatedAt": "2018-09-09T22:03:38.335Z"
}