{
  "contractName": "UpFactory",
  "abi": [
    {
      "constant": false,
      "inputs": [],
      "name": "createPact",
      "outputs": [],
      "payable": false,
      "stateMutability": "nonpayable",
      "type": "function"
    },
    {
      "constant": false,
      "inputs": [
        {
          "name": "amount",
          "type": "uint256"
        },
        {
          "name": "length",
          "type": "uint256"
        }
      ],
      "name": "deposit",
      "outputs": [],
      "payable": true,
      "stateMutability": "payable",
      "type": "function"
    }
  ],
  "bytecode": "0x6060604052341561000f57600080fd5b6105308061001e6000396000f30060606040526004361061004c576000357c0100000000000000000000000000000000000000000000000000000000900463ffffffff16806331ce0d3614610051578063e2bbb15814610066575b600080fd5b341561005c57600080fd5b610064610087565b005b61008560048080359060200190919080359060200190919050506101a1565b005b60008060003373ffffffffffffffffffffffffffffffffffffffff1673ffffffffffffffffffffffffffffffffffffffff16815260200190815260200160002060009054906101000a900473ffffffffffffffffffffffffffffffffffffffff1673ffffffffffffffffffffffffffffffffffffffff16141561019f5761010c61030d565b604051809103906000f080151561012257600080fd5b6000803373ffffffffffffffffffffffffffffffffffffffff1673ffffffffffffffffffffffffffffffffffffffff16815260200190815260200160002060006101000a81548173ffffffffffffffffffffffffffffffffffffffff021916908373ffffffffffffffffffffffffffffffffffffffff1602179055505b565b60008060003373ffffffffffffffffffffffffffffffffffffffff1673ffffffffffffffffffffffffffffffffffffffff16815260200190815260200160002060009054906101000a900473ffffffffffffffffffffffffffffffffffffffff1673ffffffffffffffffffffffffffffffffffffffff161415151561022557600080fd5b6000803373ffffffffffffffffffffffffffffffffffffffff1673ffffffffffffffffffffffffffffffffffffffff16815260200190815260200160002060009054906101000a900473ffffffffffffffffffffffffffffffffffffffff1673ffffffffffffffffffffffffffffffffffffffff1663e2bbb15883836040518363ffffffff167c01000000000000000000000000000000000000000000000000000000000281526004018083815260200182815260200192505050600060405180830381600087803b15156102f957600080fd5b5af1151561030657600080fd5b5050505050565b6040516101e78061031e833901905600606060405260008060006101000a81548160ff021916908315150217905550341561002957600080fd5b6101af806100386000396000f30060606040526004361061004c576000357c0100000000000000000000000000000000000000000000000000000000900463ffffffff1680633ccfd60b14610051578063e2bbb15814610066575b600080fd5b341561005c57600080fd5b610064610087565b005b610085600480803590602001909190803590602001909190505061010d565b005b60015442111561010b57600060019054906101000a900473ffffffffffffffffffffffffffffffffffffffff1673ffffffffffffffffffffffffffffffffffffffff166108fc3073ffffffffffffffffffffffffffffffffffffffff16319081150290604051600060405180830381858888f19350505050151561010a57600080fd5b5b565b813414151561011b57600080fd5b33600060016101000a81548173ffffffffffffffffffffffffffffffffffffffff021916908373ffffffffffffffffffffffffffffffffffffffff16021790555060016000806101000a81548160ff02191690831515021790555080420160018190555050505600a165627a7a723058206f209faeeb64ef47826016b87477bbe2a3303ac1e56d153516da117d0ac1c14c0029a165627a7a723058205113e866dc1cbcb6f1be873c4ee1a3e4efdc86f4f523037fc3d13b3f972563510029",
  "source": "pragma solidity ^0.4.17;\n//import '/home/something/Dev/Eth/node_modules/openzeppelin-solidity/contracts/ownership/Ownable.sol';\n//^truffle version issue. huge waste of time\n// ^this is an issue with some npm modules at a higher directoy i think\ncontract Up {\n\n    //flag if eth is deposited and contract is used\n    bool isUsed = false;\n    //creator address\n    address ownerAddress;\n\n    uint256 endTime;\n\n    //TODO deal with time conversion on front end\n    //TODO limit on length\n    //TODO check for overflows once openzeppelin can be imported\n    function deposit(uint256 amount, uint256 length) payable public{\n        require(msg.value == amount);\n\n        ownerAddress = msg.sender;\n        isUsed = true;\n        endTime = now + length;\n    }\n\n    //TODO code to verify owner (save creator address)\n    function withdraw() public{\n        if (now > endTime) {\n            ownerAddress.transfer(address(this).balance);\n            //send back money\n        }\n    }\n}\n\ncontract UpFactory {\n    mapping (address => address) ups;\n\n    //TODO test\n    function createPact() public {\n        if (ups[msg.sender] == 0) { //one contract per factory\n            ups[msg.sender] = new Up();\n            //TODO roll the deposit in with the creation?\n        }\n    }\n\n    function deposit(uint256 amount, uint256 length) payable public{\n        require(ups[msg.sender] != 0);\n        Up(ups[msg.sender]).deposit(amount, length);\n    }\n\n    //TODO deposit\n    //TODO withdrawl\n}\n",
  "sourcePath": "/home/something/Dev/Eth/PlayGround/up1/contracts/Up.sol",
  "compiler": {
    "name": "solc",
    "version": "0.4.21+commit.dfe3193c.Emscripten.clang"
  },
  "schemaVersion": "2.0.0",
  "updatedAt": "2018-10-22T19:25:13.496Z"
}