{
  "contractName": "Lottery",
  "abi": [
    {
      "constant": true,
      "inputs": [],
      "name": "owner",
      "outputs": [
        {
          "name": "",
          "type": "address"
        }
      ],
      "payable": false,
      "stateMutability": "view",
      "type": "function"
    },
    {
      "inputs": [],
      "payable": false,
      "stateMutability": "nonpayable",
      "type": "constructor"
    },
    {
      "constant": false,
      "inputs": [
        {
          "name": "guess",
          "type": "uint8"
        }
      ],
      "name": "join",
      "outputs": [],
      "payable": false,
      "stateMutability": "nonpayable",
      "type": "function"
    },
    {
      "constant": true,
      "inputs": [
        {
          "name": "guessAddress",
          "type": "address"
        }
      ],
      "name": "getGuess",
      "outputs": [
        {
          "name": "",
          "type": "uint8"
        }
      ],
      "payable": false,
      "stateMutability": "view",
      "type": "function"
    },
    {
      "constant": true,
      "inputs": [],
      "name": "hi",
      "outputs": [
        {
          "name": "",
          "type": "string"
        }
      ],
      "payable": false,
      "stateMutability": "pure",
      "type": "function"
    }
  ],
  "bytecode": "0x6060604052341561000f57600080fd5b336000806101000a81548173ffffffffffffffffffffffffffffffffffffffff021916908373ffffffffffffffffffffffffffffffffffffffff1602179055506064600260006101000a81548160ff021916908360ff1602179055506104058061007a6000396000f300606060405260043610610062576000357c0100000000000000000000000000000000000000000000000000000000900463ffffffff1680638da5cb5b14610067578063a4208b70146100bc578063a99dca3f1461010f578063cb3e9b841461019d575b600080fd5b341561007257600080fd5b61007a6101c3565b604051808273ffffffffffffffffffffffffffffffffffffffff1673ffffffffffffffffffffffffffffffffffffffff16815260200191505060405180910390f35b34156100c757600080fd5b6100f3600480803573ffffffffffffffffffffffffffffffffffffffff169060200190919050506101e8565b604051808260ff1660ff16815260200191505060405180910390f35b341561011a57600080fd5b61012261023e565b6040518080602001828103825283818151815260200191508051906020019080838360005b83811015610162578082015181840152602081019050610147565b50505050905090810190601f16801561018f5780820380516001836020036101000a031916815260200191505b509250505060405180910390f35b34156101a857600080fd5b6101c1600480803560ff16906020019091905050610281565b005b6000809054906101000a900473ffffffffffffffffffffffffffffffffffffffff1681565b6000600360008373ffffffffffffffffffffffffffffffffffffffff1673ffffffffffffffffffffffffffffffffffffffff16815260200190815260200160002060009054906101000a900460ff169050919050565b6102466103c5565b6040805190810160405280600b81526020017f4869204c6f747465727921000000000000000000000000000000000000000000815250905090565b60648160ff1611158015610299575060018160ff1610155b15156102a457600080fd5b600260009054906101000a900460ff1660ff1660016002809054906101000a900460ff160160ff161015156102d857600080fd5b8060ff16600360003373ffffffffffffffffffffffffffffffffffffffff1673ffffffffffffffffffffffffffffffffffffffff16815260200190815260200160002060009054906101000a900460ff1660ff161415151561033957600080fd5b80600360003373ffffffffffffffffffffffffffffffffffffffff1673ffffffffffffffffffffffffffffffffffffffff16815260200190815260200160002060006101000a81548160ff021916908360ff16021790555060028081819054906101000a900460ff168092919060010191906101000a81548160ff021916908360ff1602179055505050565b6020604051908101604052806000815250905600a165627a7a72305820033dfc03e388b5d6953c1582acba27cb44b2bb6b92ba5309bc034298e44689ef0029",
  "source": "pragma solidity ^0.4.17;\n\ncontract Lottery {\n\n    address public owner;\n    address[] participants;\n\n    uint8 maxParticipants;\n    uint8 minParticipants;\n    uint8 joinedParticipants;\n\n    //TODO REVERSE  KV\n    mapping (address => uint8) entries;\n\n    //TODO mapping address to number for tickets\n\n    modifier  OwnerOnly {\n        if(msg.sender != owner){\n            //TODO is revert the right thing to call?\n            revert();\n        } else {\n            _;\n        }\n    }\n    // Constructor\n    function Lottery() public {\n        owner = msg.sender;\n        maxParticipants = 100;\n    }\n\n    function join(uint8 guess) public {\n        require (guess <= 100 && guess >= 1);\n        require(joinedParticipants + 1 < maxParticipants);\n        //cant buy the same number twice\n        require(entries[msg.sender] != guess);\n\n        entries[msg.sender] = guess;\n        joinedParticipants++;\n    }\n\n    function getGuess(address guessAddress) public  view returns (uint8){\n        return entries[guessAddress] ;\n    }\n\n    //TODO delete\n    function hi() public pure returns (string){\n        return \"Hi Lottery!\";\n\n    }\n\n}\n",
  "sourcePath": "/home/something/Dev/Eth/PlayGround/Lottery1/contracts/Lottery.sol",
  "compiler": {
    "name": "solc",
    "version": "0.4.21+commit.dfe3193c.Emscripten.clang"
  },
  "schemaVersion": "2.0.0",
  "updatedAt": "2018-06-21T01:22:38.079Z"
}