{
  "contractName": "Lottery",
  "abi": [
    {
      "constant": true,
      "inputs": [],
      "name": "owner",
      "outputs": [
        {
          "name": "",
          "type": "address"
        }
      ],
      "payable": false,
      "stateMutability": "view",
      "type": "function"
    },
    {
      "inputs": [],
      "payable": false,
      "stateMutability": "nonpayable",
      "type": "constructor"
    },
    {
      "payable": true,
      "stateMutability": "payable",
      "type": "fallback"
    },
    {
      "constant": false,
      "inputs": [
        {
          "name": "guess",
          "type": "uint8"
        }
      ],
      "name": "join",
      "outputs": [],
      "payable": false,
      "stateMutability": "nonpayable",
      "type": "function"
    },
    {
      "constant": false,
      "inputs": [
        {
          "name": "winningNum",
          "type": "uint8"
        }
      ],
      "name": "chooseWinner",
      "outputs": [],
      "payable": false,
      "stateMutability": "nonpayable",
      "type": "function"
    },
    {
      "constant": true,
      "inputs": [
        {
          "name": "guess",
          "type": "uint8"
        }
      ],
      "name": "getGuess",
      "outputs": [
        {
          "name": "",
          "type": "address"
        }
      ],
      "payable": false,
      "stateMutability": "view",
      "type": "function"
    }
  ],
  "bytecode": "0x6060604052341561000f57600080fd5b336000806101000a81548173ffffffffffffffffffffffffffffffffffffffff021916908373ffffffffffffffffffffffffffffffffffffffff1602179055506064600260006101000a81548160ff021916908360ff16021790555061042f8061007a6000396000f300606060405260043610610062576000357c0100000000000000000000000000000000000000000000000000000000900463ffffffff1680630aa29997146100645780632ee19845146100ca5780638da5cb5b146100f0578063cb3e9b8414610145575b005b341561006f57600080fd5b610088600480803560ff1690602001909190505061016b565b604051808273ffffffffffffffffffffffffffffffffffffffff1673ffffffffffffffffffffffffffffffffffffffff16815260200191505060405180910390f35b34156100d557600080fd5b6100ee600480803560ff169060200190919050506101ae565b005b34156100fb57600080fd5b610103610247565b604051808273ffffffffffffffffffffffffffffffffffffffff1673ffffffffffffffffffffffffffffffffffffffff16815260200191505060405180910390f35b341561015057600080fd5b610169600480803560ff1690602001909190505061026c565b005b6000600360008360ff1660ff16815260200190815260200160002060009054906101000a900473ffffffffffffffffffffffffffffffffffffffff169050919050565b6000600360008360ff1660ff16815260200190815260200160002060009054906101000a900473ffffffffffffffffffffffffffffffffffffffff1690508073ffffffffffffffffffffffffffffffffffffffff166108fc3073ffffffffffffffffffffffffffffffffffffffff16319081150290604051600060405180830381858888f19350505050151561024357600080fd5b5050565b6000809054906101000a900473ffffffffffffffffffffffffffffffffffffffff1681565b60648160ff1611158015610284575060018160ff1610155b151561028f57600080fd5b600260009054906101000a900460ff1660ff1660016002809054906101000a900460ff160160ff161015156102c357600080fd5b60028081819054906101000a900460ff168092919060010191906101000a81548160ff021916908360ff160217905550506001805480600101828161030891906103b2565b9160005260206000209001600033909190916101000a81548173ffffffffffffffffffffffffffffffffffffffff021916908373ffffffffffffffffffffffffffffffffffffffff1602179055505033600360008360ff1660ff16815260200190815260200160002060006101000a81548173ffffffffffffffffffffffffffffffffffffffff021916908373ffffffffffffffffffffffffffffffffffffffff16021790555050565b8154818355818115116103d9578183600052602060002091820191016103d891906103de565b5b505050565b61040091905b808211156103fc5760008160009055506001016103e4565b5090565b905600a165627a7a72305820f307c89c7f7e0ebe7e6d0baed8a228bbb982eeed6cdad0eb4ceffb5378151cd60029",
  "source": "pragma solidity ^0.4.17;\n\ncontract Lottery {\n\n    address public owner;\n    address[] participants;\n\n    uint8 maxParticipants;\n    uint8 minParticipants;\n    uint8 joinedParticipants;\n\n    mapping (uint8 => address) entries;\n\n    //TODO array participants\n\n    modifier  OwnerOnly {\n        if(msg.sender != owner){\n            revert();\n        } else {\n            _;\n        }\n    }\n    // Constructor\n    function Lottery() public {\n        owner = msg.sender;\n        maxParticipants = 100;\n    }\n\n    function join(uint8 guess) public {\n        require (guess <= 100 && guess >= 1);\n        require(joinedParticipants + 1 < maxParticipants);\n        //cant buy the same number twice\n        //TODO uncomment\n        //require(entries[guess] != msg.sender);\n\n        joinedParticipants++;\n        //TODO below line is causing problems\n        //participants[joinedParticipants] = msg.sender;\n        participants.push(msg.sender);\n        entries[guess] = msg.sender;\n    }\n\n    //TODO make this owner only then switch to oracalize\n    function chooseWinner(uint8 winningNum) public {\n        address winner = entries[winningNum];\n        //TODO this is deprecated i guess?\n        winner.transfer(this.balance);\n        //pay money to winner\n        //TODO fire off event\n        //ChooseWinner(chosenNumber,participants[chosenNumber]);\n        //clear out mapping\n    }\n\n    function getGuess(uint8 guess) public  view returns (address){\n        return entries[guess] ;\n    }\n\n    // Will receive any eth sent to the contract\n    function () external payable {\n\n    }\n}\n",
  "sourcePath": "/home/something/Dev/Eth/PlayGround/Lottery1/contracts/Lottery.sol",
  "compiler": {
    "name": "solc",
    "version": "0.4.21+commit.dfe3193c.Emscripten.clang"
  },
  "schemaVersion": "2.0.0",
  "updatedAt": "2018-06-28T00:16:31.858Z"
}