{
  "contractName": "Lottery",
  "abi": [
    {
      "constant": true,
      "inputs": [
        {
          "name": "",
          "type": "uint256"
        }
      ],
      "name": "participants",
      "outputs": [
        {
          "name": "",
          "type": "address"
        }
      ],
      "payable": false,
      "stateMutability": "view",
      "type": "function"
    },
    {
      "constant": true,
      "inputs": [],
      "name": "owner",
      "outputs": [
        {
          "name": "",
          "type": "address"
        }
      ],
      "payable": false,
      "stateMutability": "view",
      "type": "function"
    },
    {
      "inputs": [],
      "payable": false,
      "stateMutability": "nonpayable",
      "type": "constructor"
    },
    {
      "anonymous": false,
      "inputs": [
        {
          "indexed": false,
          "name": "_chosenNumber",
          "type": "uint256"
        },
        {
          "indexed": false,
          "name": "winner",
          "type": "address"
        }
      ],
      "name": "ChooseWinner",
      "type": "event"
    },
    {
      "constant": false,
      "inputs": [
        {
          "name": "guess",
          "type": "uint8"
        },
        {
          "name": "amount",
          "type": "uint256"
        }
      ],
      "name": "join",
      "outputs": [],
      "payable": true,
      "stateMutability": "payable",
      "type": "function"
    },
    {
      "constant": false,
      "inputs": [
        {
          "name": "winningNum",
          "type": "uint8"
        }
      ],
      "name": "chooseWinner",
      "outputs": [],
      "payable": false,
      "stateMutability": "nonpayable",
      "type": "function"
    },
    {
      "constant": true,
      "inputs": [
        {
          "name": "guess",
          "type": "uint8"
        }
      ],
      "name": "getGuess",
      "outputs": [
        {
          "name": "",
          "type": "address"
        }
      ],
      "payable": false,
      "stateMutability": "view",
      "type": "function"
    }
  ],
  "bytecode": "0x6060604052341561000f57600080fd5b336000806101000a81548173ffffffffffffffffffffffffffffffffffffffff021916908373ffffffffffffffffffffffffffffffffffffffff1602179055506064606560006101000a81548160ff021916908360ff16021790555061057e8061007a6000396000f30060606040526004361061006d576000357c0100000000000000000000000000000000000000000000000000000000900463ffffffff1680630aa29997146100725780632ee19845146100d857806335c1d349146100fe5780638da5cb5b14610161578063bd0fa1b1146101b6575b600080fd5b341561007d57600080fd5b610096600480803560ff169060200190919050506101da565b604051808273ffffffffffffffffffffffffffffffffffffffff1673ffffffffffffffffffffffffffffffffffffffff16815260200191505060405180910390f35b34156100e357600080fd5b6100fc600480803560ff1690602001909190505061021d565b005b341561010957600080fd5b61011f60048080359060200190919050506103a3565b604051808273ffffffffffffffffffffffffffffffffffffffff1673ffffffffffffffffffffffffffffffffffffffff16815260200191505060405180910390f35b341561016c57600080fd5b6101746103d8565b604051808273ffffffffffffffffffffffffffffffffffffffff1673ffffffffffffffffffffffffffffffffffffffff16815260200191505060405180910390f35b6101d8600480803560ff169060200190919080359060200190919050506103fd565b005b6000606660008360ff1660ff16815260200190815260200160002060009054906101000a900473ffffffffffffffffffffffffffffffffffffffff169050919050565b6000806000809054906101000a900473ffffffffffffffffffffffffffffffffffffffff1673ffffffffffffffffffffffffffffffffffffffff163373ffffffffffffffffffffffffffffffffffffffff1614151561027b57600080fd5b606660008460ff1660ff16815260200190815260200160002060009054906101000a900473ffffffffffffffffffffffffffffffffffffffff1691508173ffffffffffffffffffffffffffffffffffffffff166108fc3073ffffffffffffffffffffffffffffffffffffffff16319081150290604051600060405180830381858888f19350505050151561030e57600080fd5b600090505b60648160ff16101561039e5760018160ff1660648110151561033157fe5b0160006101000a81549073ffffffffffffffffffffffffffffffffffffffff0219169055606660008260ff1660ff16815260200190815260200160002060006101000a81549073ffffffffffffffffffffffffffffffffffffffff02191690558080600101915050610313565b505050565b6001816064811015156103b257fe5b016000915054906101000a900473ffffffffffffffffffffffffffffffffffffffff1681565b6000809054906101000a900473ffffffffffffffffffffffffffffffffffffffff1681565b803414151561040b57600080fd5b60648260ff1611158015610423575060018260ff1610155b151561042e57600080fd5b606560009054906101000a900460ff1660ff166001606560029054906101000a900460ff160160ff1610151561046357600080fd5b6065600281819054906101000a900460ff168092919060010191906101000a81548160ff021916908360ff16021790555050336001606560029054906101000a900460ff1660ff166064811015156104b757fe5b0160006101000a81548173ffffffffffffffffffffffffffffffffffffffff021916908373ffffffffffffffffffffffffffffffffffffffff16021790555033606660008460ff1660ff16815260200190815260200160002060006101000a81548173ffffffffffffffffffffffffffffffffffffffff021916908373ffffffffffffffffffffffffffffffffffffffff16021790555050505600a165627a7a72305820d1763b743d7b5b5fd850233e5efdd63237ade05ee80deb2e554145b3af6e2b4e0029",
  "source": "pragma solidity ^0.4.17;\n\ncontract Lottery {\n\n    address public owner;\n    //TODO size magic number\n    //would this be more efficicent as a stack?\n    address[100] public participants;\n\n    uint8 maxParticipants;\n    uint8 minParticipants;\n    uint8 joinedParticipants;\n\n    mapping (uint8 => address) entries;\n\n    modifier  OwnerOnly {\n        if(msg.sender != owner){\n            revert();\n        } else {\n            _;\n        }\n    }\n\n\n    event ChooseWinner(uint _chosenNumber,address winner);\n\n    // Constructor\n    function Lottery() public {\n        owner = msg.sender;\n        maxParticipants = 100;\n    }\n\n    function join(uint8 guess, uint256 amount) public payable{\n        require(msg.value == amount);\n        require (guess <= 100 && guess >= 1);\n        require(joinedParticipants + 1 < maxParticipants);\n        //cant buy the same number twice\n        //require(entries[guess] != msg.sender);\n\n        joinedParticipants++;\n        participants[joinedParticipants] = msg.sender;\n        entries[guess] = msg.sender;\n    }\n\n    //TODO make this owner only then switch to oracalize\n    function chooseWinner(uint8 winningNum) public OwnerOnly{\n        address winner = entries[winningNum];\n        //TODO this is deprecated i guess?\n        winner.transfer(this.balance);\n\n        //delete everything in the array/mapping\n        for (uint8 i = 0; i < 100; i++) {\n            delete participants[i];\n            delete entries[i];\n        }\n\n        //TODO rememove comments below??\n        //pay money to winner\n        //ChooseWinner(winningNum,participants[winningNum]);\n        //clear out mapping\n    }\n\n    function getGuess(uint8 guess) public  view returns (address){\n        return entries[guess] ;\n    }\n\n}\n",
  "sourcePath": "/home/something/Dev/Eth/PlayGround/Lottery1/contracts/Lottery.sol",
  "compiler": {
    "name": "solc",
    "version": "0.4.21+commit.dfe3193c.Emscripten.clang"
  },
  "schemaVersion": "2.0.0",
  "updatedAt": "2018-07-24T22:48:13.274Z"
}